0000003012364505                  ZANDD ENTERPRISES BV      JVBABE22   00712627128 00000                                       2
12001BE95645100416758                  EUR0000000048178840301222ZANDD ENTERPRISES BV      Zichtrekening professioneel        001
21000100002023-00001           1000000003500000030123001010000Rc opname 2023                                       03012300101 0
2200010000                                                                                        JVBABE22                   1 0
2300010000BE17645105243621                     Z.-D. Takacs-Kha                                                              0 1
31000100012023-00001           001010001001Z.-D. Takacs-Kha                                                                  1 0
3200010001LOUIZALAAN 341 341/5D              1050 Brussel (Elsene)                                                           0 0
21000200002023-00002           1000000000233250030123001010000Exp.2022.013.dsak                                    03012300101 0
2200020000                                                                                        JVBABE22                   1 0
2300020000BE17645105243621                     Z.-D. Takacs-Kha                                                              0 1
31000200012023-00002           001010001001Z.-D. Takacs-Kha                                                                  1 0
3200020001LOUIZALAAN 341 341/5D              1050 Brussel (Elsene)                                                           0 0
8001BE95645100416758                  EUR0000000044445590030123                                                                0
9               000012000000003733250000000000000000                                                                           1
0000004012364505                  ZANDD ENTERPRISES BV      JVBABE22   00712627128 00000                                       2
12002BE95645100416758                  EUR0000000044445590030123ZANDD ENTERPRISES BV      Zichtrekening professioneel        002
21000100002023-00003           1000000000500000040123011010000Aank. 3,2224 UNIVERSAL INVEST HI aan 155,16305 EUR   04012300201 0
2200010000Effectenrekening 329862 borderel 007556              543907                                                        0 0
8002BE95645100416758                  EUR0000000043945590040123                                                                0
9               000004000000000500000000000000000000                                                                           1
0000005012364505                  ZANDD ENTERPRISES BV      JVBABE22   00712627128 00000                                       2
12003BE95645100416758                  EUR0000000043945590040123ZANDD ENTERPRISES BV      Zichtrekening professioneel        003
21000100002023-00004           1000000000021000050123004020000670364XXXXXXX2003 05/01/2023 07:58                   05012300301 0
2200010000                                                                                                                   1 0
2300010000                                     FORME FS SOCIETE DES T                                                        0 1
31000100012023-00004           004020001001FORME FS SOCIETE DES T                                                            1 0
32000100011000 Bruxelles                                                                                                     0 0
8003BE95645100416758                  EUR0000000043924590050123                                                                0
9               000007000000000021000000000000000000                                                                           1
0000009012364505                  ZANDD ENTERPRISES BV      JVBABE22   00712627128 00000                                       2
12004BE95645100416758                  EUR0000000043924590050123ZANDD ENTERPRISES BV      Zichtrekening professioneel        004
21000100002023-00005           1000000000030000090123080470000Factuur 22070420                                     09012300400 0
21000200002023-00006           1000000000178000090123004020000670364XXXXXXX2003 09/01/2023 11:05 Communication: 6OD09012300401 0
22000200002764 WWW.AMAZON.COM.BE                                                                                             1 0
2300020000                                     Amazon BE Retail                                                              0 1
31000200012023-00006           004020001001Amazon BE Retail                                                                  1 0
32000200011855 Luxembourg                                                                                                    0 0
8004BE95645100416758                  EUR0000000043716590090123                                                                0
9               000008000000000208000000000000000000                                                                           1
0000010012364505                  ZANDD ENTERPRISES BV      JVBABE22   00712627128 00000                                       2
12005BE95645100416758                  EUR0000000043716590090123ZANDD ENTERPRISES BV      Zichtrekening professioneel        005
21000100002023-00007           0000000000030900100123001500000WWW.AMAZON.COM.BE                                    10012300501 0
2200010000                                                     6ZQMKYW                            KREDBEBB                   1 0
2300010000BE19739020856112                     PPRO PAYMENT SERVICES SA                                                      0 1
31000100012023-00007           001500001001PPRO PAYMENT SERVICES SA                                                          1 0
3200010001RUE DE BRAGANCE      48            1255    LUXEMBOURG                                                              0 0
8005BE95645100416758                  EUR0000000043747490100123                                                                0
9               000007000000000000000000000000030900                                                                           1
0000011012364505                  ZANDD ENTERPRISES BV      JVBABE22   00712627128 00000                                       2
12006BE95645100416758                  EUR0000000043747490100123ZANDD ENTERPRISES BV      Zichtrekening professioneel        006
21000100002023-00008           1000000000128000110123004020000670364XXXXXXX2003 11/01/2023 18:53 Communication: 53111012300601 0
2200010000QUQE AMAZON.DE                                                                                                     1 0
2300010000                                     Amazon DE                                                                     0 1
31000100012023-00008           004020001001Amazon DE                                                                         1 0
32000100012338 Luxembourg                                                                                                    0 0
8006BE95645100416758                  EUR0000000043619490110123                                                                0
9               000007000000000128000000000000000000                                                                           1
0000014012364505                  ZANDD ENTERPRISES BV      JVBABE22   00712627128 00000                                       2
12007BE95645100416758                  EUR0000000043619490110123ZANDD ENTERPRISES BV      Zichtrekening professioneel        007
21000100002023-00009           1000000000017000140123004020000670364XXXXXXX2003 14/01/2023 09:48 Communication: De 14012300701 0
2200010000Lijn/DIVB2301117665                                                                                                1 0
2300010000                                     VVM De Lijn                                                                   0 1
31000100012023-00009           004020001001VVM De Lijn                                                                       1 0
32000100012800 MECHELEN                                                                                                      0 0
21000200002023-00010           1000000000017000140123004020000670364XXXXXXX2003 14/01/2023 10:19 Communication: De 14012300701 0
2200020000Lijn/DIVB2301117942                                                                                                1 0
2300020000                                     VVM De Lijn                                                                   0 1
31000200012023-00010           004020001001VVM De Lijn                                                                       1 0
32000200012800 MECHELEN                                                                                                      0 0
21000300002023-00011           1000000002578450140123004020000670364XXXXXXX2003 14/01/2023 11:53                   14012300701 0
2200030000                                                                                                                   1 0
2300030000                                     VOLVO ST STEVENS WOLUW                                                        0 1
31000300012023-00011           004020001001VOLVO ST STEVENS WOLUW                                                            1 0
32000300011932 SINT-STEVENS-                                                                                                 0 0
8007BE95645100416758                  EUR0000000041007040140123                                                                0
9               000017000000002612450000000000000000                                                                           1
0000018012364505                  ZANDD ENTERPRISES BV      JVBABE22   00712627128 00000                                       2
12008BE95645100416758                  EUR0000000041007040140123ZANDD ENTERPRISES BV      Zichtrekening professioneel        008
21000100002023-00012           10000000002637801801230050100003477-2022-1067INV                                    18012300801 0
2200010000                                                     167413-511X74-TMSBEL               INGBNL2A                   1 0
2300010000NL92INGB0006087442                   IWG Belgium BV                                                                0 1
31000100012023-00012           005010001001IWG Belgium BV                                                                    1 0
3200010001Louizalaan 65 bus 11               1050 Brussel BE                                                                 0 0
8008BE95645100416758                  EUR0000000040743260180123                                                                0
9               000007000000000263780000000000000000                                                                           1
0000020012364505                  ZANDD ENTERPRISES BV      JVBABE22   00712627128 00000                                       2
12009BE95645100416758                  EUR0000000040743260180123ZANDD ENTERPRISES BV      Zichtrekening professioneel        009
21000100002023-00013           0000000000049950200123001500000Pay.nl inzake Bytesatwork / 5000011883 / BYTESATWORK 20012300901 0
2200010000/ RF-5146-9035-8510                                  SC39-JYV7                          RABONL2U                   1 0
2300010000NL35RABO0117713678                   Stichting Pay.nl                                                              0 1
31000100012023-00013           001500001001Stichting Pay.nl                                                                  0 0
8009BE95645100416758                  EUR0000000040793210200123                                                                0
9               000006000000000000000000000000049950                                                                           1
0000023012364505                  ZANDD ENTERPRISES BV      JVBABE22   00712627128 00000                                       2
12010BE95645100416758                  EUR0000000040793210200123ZANDD ENTERPRISES BV      Zichtrekening professioneel        010
21000100002023-00014           1000000000015000230123004020000670364XXXXXXX2003 23/01/2023 07:21 Communication: 5B823012301001 0
22000100008ZUQ 1663394936515 payment                                                                                         1 0
2300010000                                     Mobile Vikings                                                                0 1
31000100012023-00014           004020001001Mobile Vikings                                                                    1 0
32000100013500 Hasselt                                                                                                       0 0
21000200002023-00015           1000000000018960230123004020000670364XXXXXXX2003 23/01/2023 07:23 Communication: 5UR23012301001 0
220002000077BS 1663394936515 payment                                                                                         1 0
2300020000                                     Mobile Vikings                                                                0 1
31000200012023-00015           004020001001Mobile Vikings                                                                    1 0
32000200013500 Hasselt                                                                                                       0 0
21000300002023-00016           1000000000050000230123004020000670364XXXXXXX2003 23/01/2023 07:27 Communication: 59023012301001 0
2200030000IGAR 1663394936515 payment                                                                                         1 0
2300030000                                     Mobile Vikings                                                                0 1
31000300012023-00016           004020001001Mobile Vikings                                                                    1 0
32000300013500 Hasselt                                                                                                       0 0
21000400002023-00017           1000000000015000230123004020000670364XXXXXXX2003 23/01/2023 07:25 Communication: 60W23012301001 0
22000400004XWQ 1663394936515 payment                                                                                         1 0
2300040000                                     Mobile Vikings                                                                0 1
31000400012023-00017           004020001001Mobile Vikings                                                                    1 0
32000400013500 Hasselt                                                                                                       0 0
8010BE95645100416758                  EUR0000000040694250230123                                                                0
9               000022000000000098960000000000000000                                                                           1
0000024012364505                  ZANDD ENTERPRISES BV      JVBABE22   00712627128 00000                                       2
12011BE95645100416758                  EUR0000000040694250230123ZANDD ENTERPRISES BV      Zichtrekening professioneel        011
21000100002023-00018           1000000000070140240123004020000670364XXXXXXX2003 24/01/2023 09:20 Communication: Ord24012301101 0
2200010000ernummer: 15384851                                                                                                 1 0
2300010000                                     Max ICT B.V.                                                                  0 1
31000100012023-00018           004020001001Max ICT B.V.                                                                      1 0
32000100015047RC Tilburg                                                                                                     0 0
8011BE95645100416758                  EUR0000000040624110240123                                                                0
9               000007000000000070140000000000000000                                                                           1
0000027012364505                  ZANDD ENTERPRISES BV      JVBABE22   00712627128 00000                                       2
12012BE95645100416758                  EUR0000000040624110240123ZANDD ENTERPRISES BV      Zichtrekening professioneel        012
21000100002023-00019           1000000001019800270123005010000SI23/010301                                          27012301201 0
2200010000                                                     SDD-841627-8121012                 GEBABEBB                   1 0
2300010000BE42001839300054                     VOLVO                                                                         0 1
31000100012023-00019           005010001001VOLVO                                                                             0 0
8012BE95645100416758                  EUR0000000039604310270123                                                                0
9               000006000000001019800000000000000000                                                                           1
0000030012364505                  ZANDD ENTERPRISES BV      JVBABE22   00712627128 00000                                       2
12013BE95645100416758                  EUR0000000039604310270123ZANDD ENTERPRISES BV      Zichtrekening professioneel        013
21000100002023-00020           1000000001800000300123001030000HUUR BRUSSELSESTWG 614 OVERIJSE   OLISLAEGERS VASTGOE30012301301 0
2200010000D NV                                                                                    KREDBEBB                   1 0
2300010000BE35737056463137                     OLISLAEGERS VASTGOED NV                                                       0 1
31000100012023-00020           001030001001OLISLAEGERS VASTGOED NV                                                           0 0
21000200002023-00021           1000000000147990300123004020000670364XXXXXXX2003 30/01/2023 12:15 Communication: 58E30012301301 0
2200020000BG82 AMAZONRETAIL                                                                                                  1 0
2300020000                                     Amazon EU SARL                                                                0 1
31000200012023-00021           004020001001Amazon EU SARL                                                                    1 0
32000200011855 Luxembourg                                                                                                    0 0
8013BE95645100416758                  EUR0000000037656320300123                                                                0
9               000011000000001947990000000000000000                                                                           1
0000031012364505                  ZANDD ENTERPRISES BV      JVBABE22   00712627128 00000                                       2
12014BE95645100416758                  EUR0000000037656320300123ZANDD ENTERPRISES BV      Zichtrekening professioneel        014
21000100002023-00022           1000000002449830310123001010001101071262712841                                      31012301401 0
2200010000                                                                                        PCHQBEBB                   1 0
2300010000BE22679200300047                     Btw ontvangsten Brussel                                                       0 1
31000100012023-00022           001010001001Btw ontvangsten Brussel                                                           1 0
3200010001kruidtuinlaan 50 bus3402           1000, brussel                                                                   0 0
21000200002023-00023           1000000001400000310123001010000Voorschot Autersrechten  012023                      31012301401 0
2200020000                                                                                        JVBABE22                   1 0
2300020000BE17645105243621                     Z.-D. Takacs-Kha                                                              0 1
31000200012023-00023           001010001001Z.-D. Takacs-Kha                                                                  1 0
3200020001LOUIZALAAN 341 341/5D              1050 Brussel (Elsene)                                                           0 0
21000300002023-00024           1000000003554910310123001010000Loon 01/2023                                         31012301401 0
2200030000                                                                                        JVBABE22                   1 0
2300030000BE17645105243621                     Z.-D. Takacs-Kha                                                              0 1
31000300012023-00024           001010001001Z.-D. Takacs-Kha                                                                  0 0
21000400002023-00025           1000000000350220310123001010001101034932094987                                      31012301401 0
2200040000                                                                                        GEBABEBB                   1 0
2300040000BE22210005809847                     Sodexo Pass Belgium sa/nv                                                     0 1
31000400012023-00025           001010001001Sodexo Pass Belgium sa/nv                                                         1 0
3200040001Pleinlaan 15                       1050 Brussel                                                                    0 0
21000500002023-00026           1000000000220050310123001010000Loon 01/2023                                         31012301401 0
2200050000                                                                                        RABONL2U                   1 0
2300050000NL47RABO0332155048                   Zsuzsanna takacs                                                              0 1
31000500012023-00026           001010001001Zsuzsanna takacs                                                                  1 0
3200050001louizalaan 341, Appartment 5D      1050                                                                            0 0
8014BE95645100416758                  EUR0000000029681310310123                                                                0
9               000026000000007975010000000000000000                                                                           1
0000001022364505                  ZANDD ENTERPRISES BV      JVBABE22   00712627128 00000                                       2
12015BE95645100416758                  EUR0000000029681310310123ZANDD ENTERPRISES BV      Zichtrekening professioneel        015
21000100002023-00027           1000000000002990010223005010000Amazon EU S.a r.l. by Stripe via PPRO - D01-5069205-701022301501 0
2200010000797457                                               5ZSA87H                            DEUTDEFFVAC            OTHR1 0
2300010000DE14120700700090053464               Amazon EU S.a r.l. by Stripe via PP                                           0 1
31000100012023-00027           005010001001Amazon EU S.a r.l. by Stripe via PPRO                                             0 0
8015BE95645100416758                  EUR0000000029678320010223                                                                0
9               000006000000000002990000000000000000                                                                           1
0000003022364505                  ZANDD ENTERPRISES BV      JVBABE22   00712627128 00000                                       2
12016BE95645100416758                  EUR0000000029678320010223ZANDD ENTERPRISES BV      Zichtrekening professioneel        016
21000100002023-00028           1000000000500000030223011010000Aank. 3,079 UNIVERSAL INVEST HIG aan 162,38985 EUR   03022301601 0
2200010000Effectenrekening 329862 borderel 078922              556625                                                        0 0
8016BE95645100416758                  EUR0000000029178320030223                                                                0
9               000004000000000500000000000000000000                                                                           1
0000007022364505                  ZANDD ENTERPRISES BV      JVBABE22   00712627128 00000                                       2
12017BE95645100416758                  EUR0000000029178320030223ZANDD ENTERPRISES BV      Zichtrekening professioneel        017
21000100002023-00029           1000000007000000070223001010000Rekening Courant opname                              07022301701 0
2200010000                                                                                        JVBABE22                   1 0
2300010000BE17645105243621                     Z.-D. Takacs-Kha                                                              0 1
31000100012023-00029           001010001001Z.-D. Takacs-Kha                                                                  1 0
3200010001LOUIZALAAN 341 341/5D              1050 Brussel (Elsene)                                                           0 0
8017BE95645100416758                  EUR0000000022178320070223                                                                0
9               000007000000007000000000000000000000                                                                           1
0000009022364505                  ZANDD ENTERPRISES BV      JVBABE22   00712627128 00000                                       2
12018BE95645100416758                  EUR0000000022178320070223ZANDD ENTERPRISES BV      Zichtrekening professioneel        018
21000100002023-00030           1000000000022400090223004020000670364XXXXXXX2003 09/02/2023 17:14                   09022301801 0
2200010000                                                                                                                   1 0
2300010000                                     FORME FS SOCIETE DES T                                                        0 1
31000100012023-00030           004020001001FORME FS SOCIETE DES T                                                            1 0
32000100011000 Bruxelles                                                                                                     0 0
8018BE95645100416758                  EUR0000000022155920090223                                                                0
9               000007000000000022400000000000000000                                                                           1
0000010022364505                  ZANDD ENTERPRISES BV      JVBABE22   00712627128 00000                                       2
12019BE95645100416758                  EUR0000000022155920090223ZANDD ENTERPRISES BV      Zichtrekening professioneel        019
21000100002023-00031           00000000000700001002230045000000407638900000902232149090223214936304696774302011025010022301901 0
22000100000000638900000000044000000000000000P2P MOBILE      000666/4104136389/Y                   BBRUBEBB                   1 0
2300010000BE66363046967743                     BANKSYS                            07935                                      0 1
31000100012023-00031           004500001001BANKSYS                                                                           0 0
21000200002023-00032           0000000016475360100223001500000INV.NR.20221231.065.DSAK                             10022301901 0
2200020000                                                     00004308/32 2023-02-10             BBRUBEBB           SUPP    1 0
2300020000BE22320006273647                     CRONOS INTERNATIONAL                                                          0 1
31000200012023-00032           001500001001CRONOS INTERNATIONAL                                                              1 0
3200020001RUE PAFEBRUCH 89                   CAPELLEN         8308                                                           0 0
8019BE95645100416758                  EUR0000000038701280100223                                                                0
9               000011000000000000000000000016545360                                                                           1
0000011022364505                  ZANDD ENTERPRISES BV      JVBABE22   00712627128 00000                                       2
12020BE95645100416758                  EUR0000000038701280100223ZANDD ENTERPRISES BV      Zichtrekening professioneel        020
21000100002023-00033           1000000000198930110223004020000670364XXXXXXX2003 11/02/2023 12:04                   11022302001 0
2200010000                                                                                                                   1 0
2300010000                                     KaffeKapslen                                                                  0 1
31000100012023-00033           004020001001KaffeKapslen                                                                      1 0
32000100018361 HASSELAGER                                                                                                    0 0
8020BE95645100416758                  EUR0000000038502350110223                                                                0
9               000007000000000198930000000000000000                                                                           1
0000014022364505                  ZANDD ENTERPRISES BV      JVBABE22   00712627128 00000                                       2
12021BE95645100416758                  EUR0000000038502350110223ZANDD ENTERPRISES BV      Zichtrekening professioneel        021
21000100002023-00034           1000000000885870140223001010000No INVOICE 2023/001/1                                14022302101 0
2200010000                                                                                        KREDBEBB                   1 0
2300010000BE71734046730969                     BuyIT Consulting SRL                                                          0 1
31000100012023-00034           001010001001BuyIT Consulting SRL                                                              0 0
8021BE95645100416758                  EUR0000000037616480140223                                                                0
9               000006000000000885870000000000000000                                                                           1
0000015022364505                  ZANDD ENTERPRISES BV      JVBABE22   00712627128 00000                                       2
12022BE95645100416758                  EUR0000000037616480140223ZANDD ENTERPRISES BV      Zichtrekening professioneel        022
21000100002023-00035           1000000000768680150223004020000670364XXXXXXX2003 15/02/2023 21:22 Communication: 66615022302201 0
22000100007DVN AMAZON.DE                                                                                                     1 0
2300010000                                     Amazon DE                                                                     0 1
31000100012023-00035           004020001001Amazon DE                                                                         1 0
32000100012338 Luxembourg                                                                                                    0 0
8022BE95645100416758                  EUR0000000036847800150223                                                                0
9               000007000000000768680000000000000000                                                                           1
0000018022364505                  ZANDD ENTERPRISES BV      JVBABE22   00712627128 00000                                       2
12023BE95645100416758                  EUR0000000036847800150223ZANDD ENTERPRISES BV      Zichtrekening professioneel        023
21000100002023-00036           1000000000034000180223001010001101692570092458                                      18022302301 0
2200010000                                                                                        BBRUBEBB                   1 0
2300010000BE37363125177328                     V&M Services                                                                  0 1
31000100012023-00036           001010001001V&M Services                                                                      0 0
8023BE95645100416758                  EUR0000000036813800180223                                                                0
9               000006000000000034000000000000000000                                                                           1
0000020022364505                  ZANDD ENTERPRISES BV      JVBABE22   00712627128 00000                                       2
12024BE95645100416758                  EUR0000000036813800180223ZANDD ENTERPRISES BV      Zichtrekening professioneel        024
21000100002023-00037           10000000002637802002230050100003477-2023-98INV                                      20022302401 0
2200010000                                                     171259-487X74-TMSBEL               INGBNL2A                   1 0
2300010000NL92INGB0006087442                   IWG Belgium BV                                                                0 1
31000100012023-00037           005010001001IWG Belgium BV                                                                    1 0
3200010001Louizalaan 65 bus 11               1050 Brussel BE                                                                 0 0
21000200002023-00038           1000000001689980200223001010000Declaratie EXP.31012023.001.DSAK                     20022302401 0
2200020000                                                                                        JVBABE22                   1 0
2300020000BE17645105243621                     Z.-D. Takacs-Kha                                                              0 1
31000200012023-00038           001010001001Z.-D. Takacs-Kha                                                                  1 0
3200020001LOUIZALAAN 341 341/5D              1050 Brussel (Elsene)                                                           0 0
21000300002023-00039           1000000001184020200223001010001101000273806142                                      20022302401 0
2200030000                                                                                        KREDBEBB                   1 0
2300030000BE41734020050010                     LEFEBRE SARRUT Belgium NV                                                     0 1
31000300012023-00039           001010001001LEFEBRE SARRUT Belgium NV                                                         1 0
3200030001hoogstraat 139 bus 6               1000, Brussel                                                                   0 0
21000400002023-00040           1000000000373090200223001010001101730146203244                                      20022302401 0
2200040000                                                                                        GEBABEBB                   1 0
2300040000BE82210000088968                     Proximus                                                                      0 1
31000400012023-00040           001010001001Proximus                                                                          1 0
3200040001Koning Albert II-laan 27           1030 Brussel                                                                    0 0
21000500002023-00041           1000000005000000200223001010001101712627163485                                      20022302401 0
2200050000                                                                                        PCHQBEBB                   1 0
2300050000BE96679200227905                     Fod Financien Inning en Invordering                                           0 1
31000500012023-00041           001010001001Fod Financien Inning en Invordering                                               1 0
3200050001Zwartzustervest 24/32              2800 Mechelen                                                                   0 0
21000600002023-00042           1000000002488380200223001010001101201379581659                                      20022302401 0
2200060000                                                                                        PCHQBEBB                   1 0
2300060000BE42679200000054                     KMO Brussel I                                                                 0 1
31000600012023-00042           001010001001KMO Brussel I                                                                     1 0
3200060001Kruidtuinlaan 50, Bus 3402         1000, Brussel                                                                   0 0
21000700002023-00043           1000000001103220200223001010001101000012714272                                      20022302401 0
2200070000                                                                                        KREDBEBB                   1 0
2300070000BE75439811100151                     verassfin                                                                     0 1
31000700012023-00043           001010001001verassfin                                                                         1 0
3200070001Henri Dunantlaan 23                1140 EVERE                                                                      0 0
21000800002023-00044           1000000000027370200223001010001101423866212465                                      20022302401 0
2200080000                                                                                        KREDBEBB                   1 0
2300080000BE56435410980188                     Liantis sociaal secretariaat vzw                                              0 1
31000800012023-00044           001010001001Liantis sociaal secretariaat vzw                                                  1 0
3200080001Willebroekkaai 37                  1000 Brussel                                                                    0 0
21000900002023-00045           1000000000211490200223001010000VFNLO68879                                           20022302401 0
2200090000                                                                                        ABNANL2A                   1 0
2300090000NL61ABNA0578341883                   Elektor International Media BV                                                0 1
31000900012023-00045           001010001001Elektor International Media BV                                                    1 0
3200090001Postbus 11                         6114ZG Zusteren                                                                 0 0
21001000002023-00046           0000000000829000200223001500000Terug storting RC.                                   20022302401 0
2200100000                                                                                        JVBABE22                   1 0
2300100000BE17645105243621                     Takacs-Kha Z.-D.                                                              0 1
31001000012023-00046           001500001001Takacs-Kha Z.-D.                                                                  1 0
3200100001LOUIZALAAN 341 341/5D              1050 Brussel (Elsene)                                                           0 0
21001100002023-00047           1000000000076240200223001010000F2023/0091                                           20022302401 0
2200110000                                                                                        GEBABEBB                   1 0
2300110000BE49235021763071                     The Waterpurifier                                                             0 1
31001100012023-00047           001010001001The Waterpurifier                                                                 1 0
3200110001Genebroekstraat 82                 B--3581 Beverlo                                                                 0 0
21001200002023-00048           1000000000015000200223004020000670364XXXXXXX2003 20/02/2023 12:18 Communication: 6VB20022302401 0
22001200004YOZ 1663394936515 payment                                                                                         1 0
2300120000                                     Mobile Vikings                                                                0 1
31001200012023-00048           004020001001Mobile Vikings                                                                    1 0
32001200013500 Hasselt                                                                                                       0 0
21001300002023-00049           1000000000015000200223004020000670364XXXXXXX2003 20/02/2023 12:18 Communication: 6P320022302401 0
22001300008O0K 1663394936515 payment                                                                                         1 0
2300130000                                     Mobile Vikings                                                                0 1
31001300012023-00049           004020001001Mobile Vikings                                                                    1 0
32001300013500 Hasselt                                                                                                       0 0
21001400002023-00050           1000000000015000200223004020000670364XXXXXXX2003 20/02/2023 12:19 Communication: 5JP20022302401 0
2200140000YG15 1663394936515 payment                                                                                         1 0
2300140000                                     Mobile Vikings                                                                0 1
31001400012023-00050           004020001001Mobile Vikings                                                                    1 0
32001400013500 Hasselt                                                                                                       0 0
21001500002023-00051           1000000000018960200223004020000670364XXXXXXX2003 20/02/2023 12:19 Communication: 6JB20022302401 0
2200150000H1KL 1663394936515 payment                                                                                         1 0
2300150000                                     Mobile Vikings                                                                0 1
31001500012023-00051           004020001001Mobile Vikings                                                                    1 0
32001500013500 Hasselt                                                                                                       0 0
21001600002023-00052           1000000000050000200223004020000670364XXXXXXX2003 20/02/2023 12:20 Communication: 65Q20022302401 0
2200160000F854 1663394936515 payment                                                                                         1 0
2300160000                                     Mobile Vikings                                                                0 1
31001600012023-00052           004020001001Mobile Vikings                                                                    1 0
32001600013500 Hasselt                                                                                                       0 0
8024BE95645100416758                  EUR0000000025111270200223                                                                0
9               000082000000012531530000000000829000                                                                           1
0000021022364505                  ZANDD ENTERPRISES BV      JVBABE22   00712627128 00000                                       2
12025BE95645100416758                  EUR0000000025111270200223ZANDD ENTERPRISES BV      Zichtrekening professioneel        025
21000100002023-00053           10000000000099002102230050100001025338439375 PAYPAL                                 21022302501 0
2200010000                                                     1025338439375                      PPLXLUL2                   1 0
2300010000LU89751000135104200E                 PayPal Europe S.a.r.l. et Cie S.C.A                                           0 1
31000100012023-00053           005010001001PayPal Europe S.a.r.l. et Cie S.C.A                                               0 0
21000200002023-00054           10000000000204002102230050100001025372795791 PAYPAL                                 21022302501 0
2200020000                                                     1025372795791                      PPLXLUL2                   1 0
2300020000LU89751000135104200E                 PayPal Europe S.a.r.l. et Cie S.C.A                                           0 1
31000200012023-00054           005010001001PayPal Europe S.a.r.l. et Cie S.C.A                                               0 0
21000300002023-00055           1000000000025000210223004020000670364XXXXXXX2003 21/02/2023 14:24                   21022302501 0
2200030000                                                                                                                   1 0
2300030000                                     De Efteling B.V.                                                              0 1
31000300012023-00055           004020001001De Efteling B.V.                                                                  1 0
32000300015171KW KAATSHEUVEL                                                                                                 0 0
21000400002023-00056           1000000000017500210223004020000670364XXXXXXX2003 21/02/2023 15:27                   21022302501 0
2200040000                                                                                                                   1 0
2300040000                                     De Efteling B.V.                                                              0 1
31000400012023-00056           004020001001De Efteling B.V.                                                                  1 0
32000400015171KW KAATSHEUVEL                                                                                                 0 0
8025BE95645100416758                  EUR0000000025038470210223                                                                0
9               000020000000000072800000000000000000                                                                           1
0000026022364505                  ZANDD ENTERPRISES BV      JVBABE22   00712627128 00000                                       2
12026BE95645100416758                  EUR0000000025038470210223ZANDD ENTERPRISES BV      Zichtrekening professioneel        026
21000100002023-00057           1000000003663560260223001010001101071262712841                                      26022302601 0
2200010000                                                                                        PCHQBEBB                   1 0
2300010000BE22679200300047                     Btw ontvangsten Brussel                                                       0 1
31000100012023-00057           001010001001Btw ontvangsten Brussel                                                           1 0
3200010001kruidtuinlaan 50 bus3402           1000, brussel                                                                   0 0
21000200002023-00058           1000000003554910260223001010000Loon 02/2023                                         26022302601 0
2200020000                                                                                        JVBABE22                   1 0
2300020000BE17645105243621                     Z.-D. Takacs-Kha                                                              0 1
31000200012023-00058           001010001001Z.-D. Takacs-Kha                                                                  0 0
21000300002023-00059           1000000001400000260223001010000Voorschot Autersrechten  022023                      26022302601 0
2200030000                                                                                        JVBABE22                   1 0
2300030000BE17645105243621                     Z.-D. Takacs-Kha                                                              0 1
31000300012023-00059           001010001001Z.-D. Takacs-Kha                                                                  1 0
3200030001LOUIZALAAN 341 341/5D              1050 Brussel (Elsene)                                                           0 0
21000400002023-00060           1000000000220050260223001010000Loon 02/2023                                         26022302601 0
2200040000                                                                                        RABONL2U                   1 0
2300040000NL47RABO0332155048                   Zsuzsanna takacs                                                              0 1
31000400012023-00060           001010001001Zsuzsanna takacs                                                                  1 0
3200040001louizalaan 341, Appartment 5D      1050                                                                            0 0
21000500002023-00061           0000000000017500260223001500000Terug storting efteling 21 feb 2023                  26022302601 0
2200050000                                                                                        JVBABE22                   1 0
2300050000BE17645105243621                     Takacs-Kha Z.-D.                                                              0 1
31000500012023-00061           001500001001Takacs-Kha Z.-D.                                                                  1 0
3200050001LOUIZALAAN 341 341/5D              1050 Brussel (Elsene)                                                           0 0
21000600002023-00062           0000000000025000260223001500000terugstorting opnamen efteling  21 feb 2023          26022302601 0
2200060000                                                                                        JVBABE22                   1 0
2300060000BE17645105243621                     Takacs-Kha Z.-D.                                                              0 1
31000600012023-00062           001500001001Takacs-Kha Z.-D.                                                                  1 0
3200060001LOUIZALAAN 341 341/5D              1050 Brussel (Elsene)                                                           0 0
21000700002023-00063           1000000000298410260223001010001101034985223507                                      26022302601 0
2200070000                                                                                        GEBABEBB                   1 0
2300070000BE22210005809847                     Sodexo Pass Belgium sa/nv                                                     0 1
31000700012023-00063           001010001001Sodexo Pass Belgium sa/nv                                                         1 0
3200070001Pleinlaan 15                       1050 Brussel                                                                    0 0
21000800002023-00064           1000000000000180260223001010000E0400LVJ0J                                           26022302601 0
2200080000                                                                                        CITIGB2L                   1 0
2300080000GB31CITI18500812207591               MICROSOFT IRELAND OPERATIONS LIMITE                                           0 1
31000800012023-00064           001010001001MICROSOFT IRELAND OPERATIONS LIMITED                                              1 0
3200080001One Microsoft place                south county business park, leopard                                             0 0
21000900002023-00065           1000000000127000260223001010001101699000461221                                      26022302601 0
2200090000                                                                                        GKCCBEBB                   1 0
2300090000BE34091022432590                     INTERRAND                                                                     0 1
31000900012023-00065           001010001001INTERRAND                                                                         0 0
21001000002023-00066           1000000000076240260223001010000F2023/0594                                           26022302601 0
2200100000                                                                                        GEBABEBB                   1 0
2300100000BE49235021763071                     The Waterpurifier                                                             0 1
31001000012023-00066           001010001001The Waterpurifier                                                                 1 0
3200100001Genebroekstraat 82                 B--3581 Beverlo                                                                 0 0
21001100002023-00067           1000000000090560260223001010001101730201175164                                      26022302601 0
2200110000                                                                                        GEBABEBB                   1 0
2300110000BE82210000088968                     Proximus                                                                      0 1
31001100012023-00067           001010001001Proximus                                                                          1 0
3200110001Koning Albert II-laan 27           1030 Brussel                                                                    0 0
8026BE95645100416758                  EUR0000000015650060260223                                                                0
9               000055000000009430910000000000042500                                                                           1
0000027022364505                  ZANDD ENTERPRISES BV      JVBABE22   00712627128 00000                                       2
12027BE95645100416758                  EUR0000000015650060260223ZANDD ENTERPRISES BV      Zichtrekening professioneel        027
21000100002023-00068           1000000001019800270223005010000SI23/036764                                          27022302701 0
2200010000                                                     SDD-846561-8325829                 GEBABEBB                   1 0
2300010000BE42001839300054                     VOLVO                                                                         0 1
31000100012023-00068           005010001001VOLVO                                                                             0 0
8027BE95645100416758                  EUR0000000014630260270223                                                                0
9               000006000000001019800000000000000000                                                                           1
0000028022364505                  ZANDD ENTERPRISES BV      JVBABE22   00712627128 00000                                       2
12028BE95645100416758                  EUR0000000014630260270223ZANDD ENTERPRISES BV      Zichtrekening professioneel        028
21000100002023-00069           1000000001800000280223001030000HUUR BRUSSELSESTWG 614 OVERIJSE   OLISLAEGERS VASTGOE28022302801 0
2200010000D NV                                                                                    KREDBEBB                   1 0
2300010000BE35737056463137                     OLISLAEGERS VASTGOED NV                                                       0 1
31000100012023-00069           001030001001OLISLAEGERS VASTGOED NV                                                           0 0
21000200002023-00070           10000000000399902802230050100001025492845917 PAYPAL                                 28022302801 0
2200020000                                                     1025492845917 PAYPAL               DEUTDEFF                   1 0
2300020000DE88500700100175526303               PayPal (Europe) S.a r.l. et Cie, S.                                           0 1
31000200012023-00070           005010001001PayPal (Europe) S.a r.l. et Cie, S.C.A.                                           0 0
8028BE95645100416758                  EUR0000000012790270280223                                                                0
9               000010000000001839990000000000000000                                                                           1
0000001032364505                  ZANDD ENTERPRISES BV      JVBABE22   00712627128 00000                                       2
12029BE95645100416758                  EUR0000000012790270280223ZANDD ENTERPRISES BV      Zichtrekening professioneel        029
21000100002023-00071           1000000000086000010323004020000670364XXXXXXX2003 01/03/2023 20:52                   01032302901 0
2200010000                                                                                                                   1 0
2300010000                                     RANGDHANU SRL                                                                 0 1
31000100012023-00071           004020001001RANGDHANU SRL                                                                     1 0
32000100011000 BRUXELLES                                                                                                     0 0
21000200002023-00072           1000000000028400010323004020000670364XXXXXXX2003 01/03/2023 21:17                   01032302901 0
2200020000                                                                                                                   1 0
2300020000                                     TAHA                                                                          0 1
31000200012023-00072           004020001001TAHA                                                                              1 0
32000200011090 JETTE                                                                                                         0 0
8029BE95645100416758                  EUR0000000012675870010323                                                                0
9               000012000000000114400000000000000000                                                                           1
0000002032364505                  ZANDD ENTERPRISES BV      JVBABE22   00712627128 00000                                       2
12030BE95645100416758                  EUR0000000012675870010323ZANDD ENTERPRISES BV      Zichtrekening professioneel        030
21000100002023-00073           1000000000002990020323005010000Amazon EU S.a r.l. by Stripe via PPRO - D01-3565366-702032303001 0
2200010000227857                                               6X0PJVH                            DEUTDEFFVAC            OTHR1 0
2300010000DE14120700700090053464               Amazon EU S.a r.l. by Stripe via PP                                           0 1
31000100012023-00073           005010001001Amazon EU S.a r.l. by Stripe via PPRO                                             0 0
21000200002023-00074           1000000000022400020323004020000670364XXXXXXX2003 02/03/2023 11:33                   02032303001 0
2200020000                                                                                                                   1 0
2300020000                                     FORME FS SOCIETE DES T                                                        0 1
31000200012023-00074           004020001001FORME FS SOCIETE DES T                                                            1 0
32000200011000 Bruxelles                                                                                                     0 0
8030BE95645100416758                  EUR0000000012650480020323                                                                0
9               000011000000000025390000000000000000                                                                           1
0000003032364505                  ZANDD ENTERPRISES BV      JVBABE22   00712627128 00000                                       2
12031BE95645100416758                  EUR0000000012650480020323ZANDD ENTERPRISES BV      Zichtrekening professioneel        031
21000100002023-00075           1000000000499980030323011010000Aank. 3,1108 UNIVERSAL INVEST HI aan 160,72525 EUR   03032303101 0
2200010000Effectenrekening 329862 borderel 134722              569373                                                        0 0
21000200002023-00076           1000000000020000030323004020000670364XXXXXXX2003 03/03/2023 16:25                   03032303101 0
2200020000                                                                                                                   1 0
2300020000                                     NATIONALE LOTERIJ                                                             0 1
31000200012023-00076           004020001001NATIONALE LOTERIJ                                                                 1 0
32000200011040 BRUSSEL                                                                                                       0 0
21000300002023-00077           0000000000020000030323001500000Terugstoring verkeerde opname                        03032303101 0
2200030000                                                                                        JVBABE22                   1 0
2300030000BE17645105243621                     Takacs-Kha Z.-D.                                                              0 1
31000300012023-00077           001500001001Takacs-Kha Z.-D.                                                                  1 0
3200030001LOUIZALAAN 341 341/5D              1050 Brussel (Elsene)                                                           0 0
8031BE95645100416758                  EUR0000000012150500030323                                                                0
9               000014000000000519980000000000020000                                                                           1
0000004032364505                  ZANDD ENTERPRISES BV      JVBABE22   00712627128 00000                                       2
12032BE95645100416758                  EUR0000000012150500030323ZANDD ENTERPRISES BV      Zichtrekening professioneel        032
21000100002023-00078           1000000000114350040323001010000F2023/1361                                           04032303201 0
2200010000                                                                                        GEBABEBB                   1 0
2300010000BE49235021763071                     The Waterpurifier                                                             0 1
31000100012023-00078           001010001001The Waterpurifier                                                                 1 0
3200010001Genebroekstraat 82                 B--3581 Beverlo                                                                 0 0
21000200002023-00079           1000000000015000040323001010000VSMV5223452359                                       04032303201 0
2200020000                                                                                        KREDBEBB                   1 0
2300020000BE02737026917240                     Mobile Vikings NV                                                             0 1
31000200012023-00079           001010001001Mobile Vikings NV                                                                 0 0
8032BE95645100416758                  EUR0000000012021150040323                                                                0
9               000011000000000129350000000000000000                                                                           1
0000006032364505                  ZANDD ENTERPRISES BV      JVBABE22   00712627128 00000                                       2
12033BE95645100416758                  EUR0000000012021150040323ZANDD ENTERPRISES BV      Zichtrekening professioneel        033
21000100002023-00080           1000000000108590060323005010000FAK230543502                                         06032303301 0
2200010000                                                     982158384770                       GKCCBEBB                   1 0
2300010000BE84091010925259                     DE WATERGROEP                                                                 0 1
31000100012023-00080           005010001001DE WATERGROEP                                                                     1 0
3200010001VOORUITGANGSTRAAT                   189                                                                            0 0
8033BE95645100416758                  EUR0000000011912560060323                                                                0
9               000007000000000108590000000000000000                                                                           1
0000008032364505                  ZANDD ENTERPRISES BV      JVBABE22   00712627128 00000                                       2
12034BE95645100416758                  EUR0000000011912560060323ZANDD ENTERPRISES BV      Zichtrekening professioneel        034
21000100002023-00081           1000000000015000080323080470000Factuur 23009630                                     08032303400 0
21000200002023-00082           1000000000079950080323005010000Mandate:119650347/ Creditor ID:DE39ZZZ00000342938/ .C08032303401 0
2200020000leverbridgename./ Ref. No:380555392/ Piriform Softwar281365748                          DEUTDEDK                   1 0
2300020000DE04370700600192144405               cleverbridge GmbH                  e Ltd                                      0 1
31000200012023-00082           005010001001cleverbridge GmbH                                                                 1 0
3200020001Gereonstr. 43-65                   50670 Koln                                                                      0 0
8034BE95645100416758                  EUR0000000011817610080323                                                                0
9               000008000000000094950000000000000000                                                                           1
0000010032364505                  ZANDD ENTERPRISES BV      JVBABE22   00712627128 00000                                       2
12035BE95645100416758                  EUR0000000011817610080323ZANDD ENTERPRISES BV      Zichtrekening professioneel        035
21000100002023-00083           1000000000394170100323004020000670364XXXXXXX2003 10/03/2023 12:10 Communication: Aze10032303501 0
2200010000rty.nl WA000411186 by Multi                                                                                        1 0
2300010000                                     Azerty BV                                                                     0 1
31000100012023-00083           004020001001Azerty BV                                                                         1 0
32000100018102HZ Raalte                                                                                                      0 0
21000200002023-00084           0000000021109060100323001500000INV.NR.20230131.066.DSAK                             10032303501 0
2200020000                                                     00004375/39 2023-03-10             BBRUBEBB           SUPP    1 0
2300020000BE22320006273647                     CRONOS INTERNATIONAL                                                          0 1
31000200012023-00084           001500001001CRONOS INTERNATIONAL                                                              1 0
3200020001RUE PAFEBRUCH 89                   CAPELLEN         8308                                                           0 0
8035BE95645100416758                  EUR0000000032532500100323                                                                0
9               000012000000000394170000000021109060                                                                           1
0000013032364505                  ZANDD ENTERPRISES BV      JVBABE22   00712627128 00000                                       2
12036BE95645100416758                  EUR0000000032532500100323ZANDD ENTERPRISES BV      Zichtrekening professioneel        036
21000100002023-00085           1000000000174060130323004020000670364XXXXXXX2003 13/03/2023 13:05 Communication: 5RC13032303601 0
2200010000DBGX AMAZON.DE                                                                                                     1 0
2300010000                                     Amazon DE                                                                     0 1
31000100012023-00085           004020001001Amazon DE                                                                         1 0
32000100012338 Luxembourg                                                                                                    0 0
8036BE95645100416758                  EUR0000000032358440130323                                                                0
9               000007000000000174060000000000000000                                                                           1
0000020032364505                  ZANDD ENTERPRISES BV      JVBABE22   00712627128 00000                                       2
12037BE95645100416758                  EUR0000000032358440130323ZANDD ENTERPRISES BV      Zichtrekening professioneel        037
21000100002023-00086           10000000002637802003230050100003477-2023-182INV                                     20032303701 0
2200010000                                                     174897-487X74-TMSBEL               INGBNL2A                   1 0
2300010000NL92INGB0006087442                   IWG Belgium BV                                                                0 1
31000100012023-00086           005010001001IWG Belgium BV                                                                    1 0
3200010001Louizalaan 65 bus 11               1050 Brussel BE                                                                 0 0
8037BE95645100416758                  EUR0000000032094660200323                                                                0
9               000007000000000263780000000000000000                                                                           1
0000021032364505                  ZANDD ENTERPRISES BV      JVBABE22   00712627128 00000                                       2
12038BE95645100416758                  EUR0000000032094660200323ZANDD ENTERPRISES BV      Zichtrekening professioneel        038
21000100002023-00087           10000000000128702103230050100001025909591184 PAYPAL                                 21032303801 0
2200010000                                                     1025909591184 PAYPAL               DEUTDEFF                   1 0
2300010000DE88500700100175526303               PayPal (Europe) S.a r.l. et Cie, S.                                           0 1
31000100012023-00087           005010001001PayPal (Europe) S.a r.l. et Cie, S.C.A.                                           0 0
21000200002023-00088           10000000000599902103230050100001025920101345 PAYPAL                                 21032303801 0
2200020000                                                     1025920101345                      PPLXLUL2                   1 0
2300020000LU89751000135104200E                 PayPal Europe S.a.r.l. et Cie S.C.A                                           0 1
31000200012023-00088           005010001001PayPal Europe S.a.r.l. et Cie S.C.A                                               0 0
8038BE95645100416758                  EUR0000000032021800210323                                                                0
9               000010000000000072860000000000000000                                                                           1
0000024032364505                  ZANDD ENTERPRISES BV      JVBABE22   00712627128 00000                                       2
12039BE95645100416758                  EUR0000000032021800210323ZANDD ENTERPRISES BV      Zichtrekening professioneel        039
21000100002023-00089           0000000007309370240323001500000Invoice n  INV.NR.20230228.068.DSAK                  24032303901 0
2200010000                                                     202303231119517454ISABEL           BBRUBEBB                   1 0
2300010000BE22320006273647                     CRONOS INTERNATIONAL                                                          0 1
31000100012023-00089           001500001001CRONOS INTERNATIONAL                                                              1 0
3200010001RUE PAFEBRUCH 89                   CAPELLEN         8308                                                           0 0
21000200002023-00090           0000000006178260240323001500000INV.NR.20230228.067.DSAK                             24032303901 0
2200020000                                                     00004386/207 2023-03-24            BBRUBEBB           SUPP    1 0
2300020000BE22320006273647                     CRONOS INTERNATIONAL                                                          0 1
31000200012023-00090           001500001001CRONOS INTERNATIONAL                                                              1 0
3200020001RUE PAFEBRUCH 89                   CAPELLEN         8308                                                           0 0
8039BE95645100416758                  EUR0000000045509430240323                                                                0
9               000012000000000000000000000013487630                                                                           1
0000025032364505                  ZANDD ENTERPRISES BV      JVBABE22   00712627128 00000                                       2
12040BE95645100416758                  EUR0000000045509430240323ZANDD ENTERPRISES BV      Zichtrekening professioneel        040
21000100002023-00091           1000000001400000250323001010000Voorschot Autersrechten  032023                      25032304001 0
2200010000                                                                                        JVBABE22                   1 0
2300010000BE17645105243621                     Z.-D. Takacs-Kha                                                              0 1
31000100012023-00091           001010001001Z.-D. Takacs-Kha                                                                  1 0
3200010001LOUIZALAAN 341 341/5D              1050 Brussel (Elsene)                                                           0 0
21000200002023-00092           1000000003554910250323001010000Loon 03-2023                                         25032304001 0
2200020000                                                                                        JVBABE22                   1 0
2300020000BE17645105243621                     Z.-D. Takacs-Kha                                                              0 1
31000200012023-00092           001010001001Z.-D. Takacs-Kha                                                                  0 0
21000300002023-00093           1000000000220050250323001010000Loon 03-2023                                         25032304001 0
2200030000                                                                                        RABONL2U                   1 0
2300030000NL47RABO0332155048                   Zsuzsanna takacs                                                              0 1
31000300012023-00093           001010001001Zsuzsanna takacs                                                                  1 0
3200030001louizalaan 341, Appartment 5D      1050                                                                            0 0
8040BE95645100416758                  EUR0000000040334470250323                                                                0
9               000016000000005174960000000000000000                                                                           1
0000027032364505                  ZANDD ENTERPRISES BV      JVBABE22   00712627128 00000                                       2
12041BE95645100416758                  EUR0000000040334470250323ZANDD ENTERPRISES BV      Zichtrekening professioneel        041
21000100002023-00094           1000000001019800270323005010000SI23/062970                                          27032304101 0
2200010000                                                     SDD-851742-8555110                 GEBABEBB                   1 0
2300010000BE42001839300054                     VOLVO                                                                         0 1
31000100012023-00094           005010001001VOLVO                                                                             0 0
8041BE95645100416758                  EUR0000000039314670270323                                                                0
9               000006000000001019800000000000000000                                                                           1
0000029032364505                  ZANDD ENTERPRISES BV      JVBABE22   00712627128 00000                                       2
12042BE95645100416758                  EUR0000000039314670270323ZANDD ENTERPRISES BV      Zichtrekening professioneel        042
21000100002023-00095           1000000000015220290323004020000670364XXXXXXX2003 29/03/2023 05:12 Communication: 6FJ29032304201 0
220001000017P9 1663394936515 payment                                                                                         1 0
2300010000                                     Mobile Vikings                                                                0 1
31000100012023-00095           004020001001Mobile Vikings                                                                    1 0
32000100013500 Hasselt                                                                                                       0 0
21000200002023-00096           1000000000015000290323004020000670364XXXXXXX2003 29/03/2023 05:16 Communication: 56R29032304201 0
2200020000KAZW 1663394936515 payment                                                                                         1 0
2300020000                                     Mobile Vikings                                                                0 1
31000200012023-00096           004020001001Mobile Vikings                                                                    1 0
32000200013500 Hasselt                                                                                                       0 0
21000300002023-00097           1000000000050000290323004020000670364XXXXXXX2003 29/03/2023 05:15 Communication: 5Q129032304201 0
2200030000ACRA 1663394936515 payment                                                                                         1 0
2300030000                                     Mobile Vikings                                                                0 1
31000300012023-00097           004020001001Mobile Vikings                                                                    1 0
32000300013500 Hasselt                                                                                                       0 0
21000400002023-00098           1000000000017530290323004020000670364XXXXXXX2003 29/03/2023 05:16 Communication: 6NF29032304201 0
22000400006JK6 1663394936515 payment                                                                                         1 0
2300040000                                     Mobile Vikings                                                                0 1
31000400012023-00098           004020001001Mobile Vikings                                                                    1 0
32000400013500 Hasselt                                                                                                       0 0
8042BE95645100416758                  EUR0000000039216920290323                                                                0
9               000022000000000097750000000000000000                                                                           1
0000030032364505                  ZANDD ENTERPRISES BV      JVBABE22   00712627128 00000                                       2
12043BE95645100416758                  EUR0000000039216920290323ZANDD ENTERPRISES BV      Zichtrekening professioneel        043
21000100002023-00099           1000000001800000300323001030000HUUR BRUSSELSESTWG 614 OVERIJSE   OLISLAEGERS VASTGOE30032304301 0
2200010000D NV                                                                                    KREDBEBB                   1 0
2300010000BE35737056463137                     OLISLAEGERS VASTGOED NV                                                       0 1
31000100012023-00099           001030001001OLISLAEGERS VASTGOED NV                                                           0 0
21000200002023-00100           1000000000002990300323005010000Amazon EU S.a r.l. by Stripe via PPRO - D01-8493270-630032304301 0
2200020000063003                                               6AING71                            DEUTDEFFVAC            OTHR1 0
2300020000DE14120700700090053464               Amazon EU S.a r.l. by Stripe via PP                                           0 1
31000200012023-00100           005010001001Amazon EU S.a r.l. by Stripe via PPRO                                             0 0
8043BE95645100416758                  EUR0000000037413930300323                                                                0
9               000010000000001802990000000000000000                                                                           1
0000031032364505                  ZANDD ENTERPRISES BV      JVBABE22   00712627128 00000                                       2
12044BE95645100416758                  EUR0000000037413930300323ZANDD ENTERPRISES BV      Zichtrekening professioneel        044
21000100002023-00101           10000000001074403103230050100001026102756247 PAYPAL                                 31032304401 0
2200010000                                                     1026102756247 PAYPAL               DEUTDEFF                   1 0
2300010000DE88500700100175526303               PayPal (Europe) S.a r.l. et Cie, S.                                           0 1
31000100012023-00101           005010001001PayPal (Europe) S.a r.l. et Cie, S.C.A.                                           0 0
8044BE95645100416758                  EUR0000000037306490310323                                                                0
9               000006000000000107440000000000000000                                                                           1
0000001042364505                  ZANDD ENTERPRISES BV      JVBABE22   00712627128 00000                                       2
12045BE95645100416758                  EUR0000000037306490310323ZANDD ENTERPRISES BV      Zichtrekening professioneel        045
21000100002023-00102           1000000000195600010423004020000670364XXXXXXX2003 01/04/2023 12:43 Communication: DNR01042304501 0
2200010000: MQFSPHB                                                                                                          1 0
2300010000                                     NS                                                                            0 1
31000100012023-00102           004020001001NS                                                                                1 0
32000100011012 AB Amsterdam                                                                                                  0 0
21000200002023-00103           1000000000019280010423004020000670364XXXXXXX2003 01/04/2023 10:47 Communication: 59O01042304501 0
2200020000LHXP WWW.AMAZON.COM.BE                                                                                             1 0
2300020000                                     AMZN MKTP BE                                                                  0 1
31000200012023-00103           004020001001AMZN MKTP BE                                                                      1 0
32000200011855 Luxembourg                                                                                                    0 0
8045BE95645100416758                  EUR0000000037091610010423                                                                0
9               000012000000000214880000000000000000                                                                           1
0000002042364505                  ZANDD ENTERPRISES BV      JVBABE22   00712627128 00000                                       2
12046BE95645100416758                  EUR0000000037091610010423ZANDD ENTERPRISES BV      Zichtrekening professioneel        046
21000100002023-00104           1000000002282910020423001010001101500632442396                                      02042304601 0
2200010000                                                                                        KREDBEBB                   1 0
2300010000BE31410000071155                     VOLVO CAR INSURANCE                                                           0 1
31000100012023-00104           001010001001VOLVO CAR INSURANCE                                                               0 0
21000200002023-00105           1000000000255600020423001010001101580330036074                                      02042304601 0
2200020000                                                                                        GKCCBEBB                   1 0
2300020000BE41091018845210                     Hulpverleningszone Oost VL-Br.                                                0 1
31000200012023-00105           001010001001Hulpverleningszone Oost VL-Br.                                                    1 0
3200020001Spoorwegstraat 6                   3020 HERENT                                                                     0 0
21000300002023-00106           1000000000874190020423001010001101419169760031                                      02042304601 0
2200030000                                                                                        KREDBEBB                   1 0
2300030000BE56435410980188                     Liantis sociaal secretariaat vzw                                              0 1
31000300012023-00106           001010001001Liantis sociaal secretariaat vzw                                                  1 0
3200030001Willebroekkaai 37                  1000 Brussel                                                                    0 0
21000400002023-00107           1000000000050000020423001010001101201411124039                                      02042304601 0
2200040000                                                                                        PCHQBEBB                   1 0
2300040000BE42679200000054                     KMO Brussel I                                                                 0 1
31000400012023-00107           001010001001KMO Brussel I                                                                     1 0
3200040001Kruidtuinlaan 50, Bus 3402         1000, Brussel                                                                   0 0
21000500002023-00108           1000000000229200020423001010001101230214910691                                      02042304601 0
2200050000                                                                                        KREDBEBB                   1 0
2300050000BE71448764648169                     HELAN                                                                         0 1
31000500012023-00108           001010001001HELAN                                                                             1 0
3200050001sluisweg 2 bus 1                   9000 Gent                                                                       0 0
21000600002023-00109           1000000000010000020423001010001101730258918153                                      02042304601 0
2200060000                                                                                        GEBABEBB                   1 0
2300060000BE82210000088968                     Proximus                                                                      0 1
31000600012023-00109           001010001001Proximus                                                                          1 0
3200060001Koning Albert II-laan 27           1030 Brussel                                                                    0 0
21000700002023-00110           1000000002299480020423001010001101323858887113                                      02042304601 0
2200070000                                                                                        BBRUBEBB                   1 0
2300070000BE17310001380621                     Partena svz                                                                   0 1
31000700012023-00110           001010001001Partena svz                                                                       1 0
3200070001Kartuizerstraat 45                 1000 Brussel                                                                    0 0
21000800002023-00111           10000000001143500204230010100002023/2089                                            02042304601 0
2200080000                                                                                        GEBABEBB                   1 0
2300080000BE49235021763071                     The Waterpurifier                                                             0 1
31000800012023-00111           001010001001The Waterpurifier                                                                 1 0
3200080001Genebroekstraat 82                 B--3581 Beverlo                                                                 0 0
21000900002023-00112           1000000000014960020423001010000E0400MA45A                                           02042304601 0
2200090000                                                                                        CITIGB2L                   1 0
2300090000GB31CITI18500812207591               MICROSOFT IRELAND OPERATIONS LIMITE                                           0 1
31000900012023-00112           001010001001MICROSOFT IRELAND OPERATIONS LIMITED                                              1 0
3200090001One Microsoft place                south county business park, leopard                                             0 0
8046BE95645100416758                  EUR0000000030960920020423                                                                0
9               000046000000006130690000000000000000                                                                           1
0000003042364505                  ZANDD ENTERPRISES BV      JVBABE22   00712627128 00000                                       2
12047BE95645100416758                  EUR0000000030960920020423ZANDD ENTERPRISES BV      Zichtrekening professioneel        047
21000100002023-00113           1000000001538320030423001010000EXP.31032023.003.DSAK                                03042304701 0
2200010000                                                                                        JVBABE22                   1 0
2300010000BE17645105243621                     Z.-D. Takacs-Kha                                                              0 1
31000100012023-00113           001010001001Z.-D. Takacs-Kha                                                                  1 0
3200010001LOUIZALAAN 341 341/5D              1050 Brussel (Elsene)                                                           0 0
21000200002023-00114           1000000000112440030423001010000EXP.28022023.002.DSAK                                03042304701 0
2200020000                                                                                        JVBABE22                   1 0
2300020000BE17645105243621                     Z.-D. Takacs-Kha                                                              0 1
31000200012023-00114           001010001001Z.-D. Takacs-Kha                                                                  1 0
3200020001LOUIZALAAN 341 341/5D              1050 Brussel (Elsene)                                                           0 0
21000300002023-00115           1000000000330330030423001010001101936020123188                                      03042304701 0
2200030000                                                                                        BBRUBEBB                   1 0
2300030000BE86335013434950                     Peumans Bvba                                                                  0 1
31000300012023-00115           001010001001Peumans Bvba                                                                      0 0
21000400002023-00116           1000000000330330030423001010001101229010323164                                      03042304701 0
2200040000                                                                                        BBRUBEBB                   1 0
2300040000BE86335013434950                     Peumans Bvba                                                                  0 1
31000400012023-00116           001010001001Peumans Bvba                                                                      0 0
21000500002023-00117           1000000000330330030423001010001101082010223117                                      03042304701 0
2200050000                                                                                        BBRUBEBB                   1 0
2300050000BE86335013434950                     Peumans Bvba                                                                  0 1
31000500012023-00117           001010001001Peumans Bvba                                                                      0 0
21000600002023-00118           1000000000330330030423001010001101397010423158                                      03042304701 0
2200060000                                                                                        BBRUBEBB                   1 0
2300060000BE86335013434950                     Peumans Bvba                                                                  0 1
31000600012023-00118           001010001001Peumans Bvba                                                                      0 0
8047BE95645100416758                  EUR0000000027988840030423                                                                0
9               000028000000002972080000000000000000                                                                           1
0000005042364505                  ZANDD ENTERPRISES BV      JVBABE22   00712627128 00000                                       2
12048BE95645100416758                  EUR0000000027988840030423ZANDD ENTERPRISES BV      Zichtrekening professioneel        048
21000100002023-00119           1000000000500000050423011010000Aank. 3,0671 UNIVERSAL INVEST HI aan 163,01915 EUR   05042304801 0
2200010000Effectenrekening 329862 borderel 214702              581209                                                        0 0
8048BE95645100416758                  EUR0000000027488840050423                                                                0
9               000004000000000500000000000000000000                                                                           1
0000006042364505                  ZANDD ENTERPRISES BV      JVBABE22   00712627128 00000                                       2
12049BE95645100416758                  EUR0000000027488840050423ZANDD ENTERPRISES BV      Zichtrekening professioneel        049
21000100002023-00120           1000000001634120060423001010000No INVOICE2023/001/2                                 06042304901 0
2200010000                                                                                        KREDBEBB                   1 0
2300010000BE71734046730969                     BuyIT Consulting SRL                                                          0 1
31000100012023-00120           001010001001BuyIT Consulting SRL                                                              0 0
21000200002023-00121           1000000000019880060423004020000670364XXXXXXX2003 06/04/2023 10:50 Communication: 6RQ06042304901 0
2200020000K17Z WWW.AMAZON.COM.BE                                                                                             1 0
2300020000                                     AMZN MKTP BE                                                                  0 1
31000200012023-00121           004020001001AMZN MKTP BE                                                                      1 0
32000200011855 Luxembourg                                                                                                    0 0
21000300002023-00122           1000000007500000060423001010000Voorafbetaling inkomsten dsak Q1 2023                06042304901 0
2200030000                                                                                        PCHQBEBB                   1 0
2300030000BE61679200229117                     Inningscentrum   Dienst voorafbetal                                           0 1
31000300012023-00122           001010001001Inningscentrum   Dienst voorafbetalingen                                          1 0
3200030001Koning Albert II-laan 33           1030 Brussel                                                                    0 0
8049BE95645100416758                  EUR0000000018334840060423                                                                0
9               000016000000009154000000000000000000                                                                           1
0000007042364505                  ZANDD ENTERPRISES BV      JVBABE22   00712627128 00000                                       2
12050BE95645100416758                  EUR0000000018334840060423ZANDD ENTERPRISES BV      Zichtrekening professioneel        050
21000100002023-00123           1000000000022400070423004020000670364XXXXXXX2003 07/04/2023 09:05                   07042305001 0
2200010000                                                                                                                   1 0
2300010000                                     FORME FS SOCIETE DES T                                                        0 1
31000100012023-00123           004020001001FORME FS SOCIETE DES T                                                            1 0
32000100011000 Bruxelles                                                                                                     0 0
21000200002023-00124           1000000000022400070423004020000670364XXXXXXX2003 07/04/2023 09:08                   07042305001 0
2200020000                                                                                                                   1 0
2300020000                                     FORME FS SOCIETE DES T                                                        0 1
31000200012023-00124           004020001001FORME FS SOCIETE DES T                                                            1 0
32000200011000 Bruxelles                                                                                                     0 0
21000300002023-00125           1000000000022400070423004020000670364XXXXXXX2003 07/04/2023 09:10                   07042305001 0
2200030000                                                                                                                   1 0
2300030000                                     FORME FS SOCIETE DES T                                                        0 1
31000300012023-00125           004020001001FORME FS SOCIETE DES T                                                            1 0
32000300011000 Bruxelles                                                                                                     0 0
8050BE95645100416758                  EUR0000000018267640070423                                                                0
9               000017000000000067200000000000000000                                                                           1
